{
  "contractName": "Wallet",
  "abi": [
    {
      "inputs": [],
      "stateMutability": "nonpayable",
      "type": "constructor"
    },
    {
      "inputs": [
        {
          "internalType": "uint256",
          "name": "amount",
          "type": "uint256"
        }
      ],
      "name": "save",
      "outputs": [],
      "stateMutability": "nonpayable",
      "type": "function"
    },
    {
      "inputs": [
        {
          "internalType": "uint256",
          "name": "amount",
          "type": "uint256"
        },
        {
          "internalType": "address",
          "name": "recipient",
          "type": "address"
        }
      ],
      "name": "spend",
      "outputs": [],
      "stateMutability": "nonpayable",
      "type": "function"
    },
    {
      "inputs": [],
      "name": "balance",
      "outputs": [
        {
          "internalType": "uint256",
          "name": "",
          "type": "uint256"
        }
      ],
      "stateMutability": "view",
      "type": "function"
    }
  ],
  "bytecode": "0x6080604052736b175474e89094c44da98b954eedeac495271d0f600160006101000a81548173ffffffffffffffffffffffffffffffffffffffff021916908373ffffffffffffffffffffffffffffffffffffffff16021790555073c2cb1040220768554cf699b0d863a3cd4324ce32600260006101000a81548173ffffffffffffffffffffffffffffffffffffffff021916908373ffffffffffffffffffffffffffffffffffffffff1602179055503480156100ba57600080fd5b50336000806101000a81548173ffffffffffffffffffffffffffffffffffffffff021916908373ffffffffffffffffffffffffffffffffffffffff1602179055506108d08061010a6000396000f3fe608060405234801561001057600080fd5b50600436106100415760003560e01c80631b862027146100465780631e9f59db14610074578063b69ef8a8146100c2575b600080fd5b6100726004803603602081101561005c57600080fd5b81019080803590602001909291905050506100e0565b005b6100c06004803603604081101561008a57600080fd5b8101908080359060200190929190803573ffffffffffffffffffffffffffffffffffffffff1690602001909291905050506101d9565b005b6100ca61059f565b6040518082815260200191505060405180910390f35b600160009054906101000a900473ffffffffffffffffffffffffffffffffffffffff1673ffffffffffffffffffffffffffffffffffffffff166323b872dd3330846040518463ffffffff1660e01b8152600401808473ffffffffffffffffffffffffffffffffffffffff1681526020018373ffffffffffffffffffffffffffffffffffffffff1681526020018281526020019350505050602060405180830381600087803b15801561019157600080fd5b505af11580156101a5573d6000803e3d6000fd5b505050506040513d60208110156101bb57600080fd5b8101908080519060200190929190505050506101d681610719565b50565b60008054906101000a900473ffffffffffffffffffffffffffffffffffffffff1673ffffffffffffffffffffffffffffffffffffffff163373ffffffffffffffffffffffffffffffffffffffff161461029a576040517f08c379a000000000000000000000000000000000000000000000000000000000815260040180806020018281038252600a8152602001807f6f6e6c792061646d696e0000000000000000000000000000000000000000000081525060200191505060405180910390fd5b6000600260009054906101000a900473ffffffffffffffffffffffffffffffffffffffff1673ffffffffffffffffffffffffffffffffffffffff166370a08231306040518263ffffffff1660e01b8152600401808273ffffffffffffffffffffffffffffffffffffffff16815260200191505060206040518083038186803b15801561032557600080fd5b505afa158015610339573d6000803e3d6000fd5b505050506040513d602081101561034f57600080fd5b81019080805190602001909291905050509050600260009054906101000a900473ffffffffffffffffffffffffffffffffffffffff1673ffffffffffffffffffffffffffffffffffffffff16632e1a7d4d826040518263ffffffff1660e01b815260040180828152602001915050600060405180830381600087803b1580156103d757600080fd5b505af11580156103eb573d6000803e3d6000fd5b50505050600160009054906101000a900473ffffffffffffffffffffffffffffffffffffffff1673ffffffffffffffffffffffffffffffffffffffff1663a9059cbb83856040518363ffffffff1660e01b8152600401808373ffffffffffffffffffffffffffffffffffffffff16815260200182815260200192505050602060405180830381600087803b15801561048257600080fd5b505af1158015610496573d6000803e3d6000fd5b505050506040513d60208110156104ac57600080fd5b8101908080519060200190929190505050506000600160009054906101000a900473ffffffffffffffffffffffffffffffffffffffff1673ffffffffffffffffffffffffffffffffffffffff166370a08231306040518263ffffffff1660e01b8152600401808273ffffffffffffffffffffffffffffffffffffffff16815260200191505060206040518083038186803b15801561054957600080fd5b505afa15801561055d573d6000803e3d6000fd5b505050506040513d602081101561057357600080fd5b8101908080519060200190929190505050905060008111156105995761059881610719565b5b50505050565b600080600260009054906101000a900473ffffffffffffffffffffffffffffffffffffffff1673ffffffffffffffffffffffffffffffffffffffff166377c7b8fc6040518163ffffffff1660e01b815260040160206040518083038186803b15801561060a57600080fd5b505afa15801561061e573d6000803e3d6000fd5b505050506040513d602081101561063457600080fd5b810190808051906020019092919050505090506000600260009054906101000a900473ffffffffffffffffffffffffffffffffffffffff1673ffffffffffffffffffffffffffffffffffffffff166370a08231306040518263ffffffff1660e01b8152600401808273ffffffffffffffffffffffffffffffffffffffff16815260200191505060206040518083038186803b1580156106d257600080fd5b505afa1580156106e6573d6000803e3d6000fd5b505050506040513d60208110156106fc57600080fd5b810190808051906020019092919050505090508181029250505090565b600160009054906101000a900473ffffffffffffffffffffffffffffffffffffffff1673ffffffffffffffffffffffffffffffffffffffff1663095ea7b3600260009054906101000a900473ffffffffffffffffffffffffffffffffffffffff16836040518363ffffffff1660e01b8152600401808373ffffffffffffffffffffffffffffffffffffffff16815260200182815260200192505050602060405180830381600087803b1580156107ce57600080fd5b505af11580156107e2573d6000803e3d6000fd5b505050506040513d60208110156107f857600080fd5b810190808051906020019092919050505050600260009054906101000a900473ffffffffffffffffffffffffffffffffffffffff1673ffffffffffffffffffffffffffffffffffffffff1663b6b55f25826040518263ffffffff1660e01b815260040180828152602001915050600060405180830381600087803b15801561087f57600080fd5b505af1158015610893573d6000803e3d6000fd5b505050505056fea26469706673582212201614feec22e298f53bab18c05bfa22dc5aaf2bcadebb21c1ee9ad089752e7f1764736f6c63430007050033",
  "immutableReferences": {},
  "source": "pragma solidity ^0.7.5;\r\n\r\nimport '@openzeppelin/contracts/token/ERC20/IERC20.sol';\r\n\r\ninterface IYDAI {\r\n    function deposit(uint _amount) external;\r\n    function withdraw(uint _shares) external;\r\n    function balanceOf(address _account) external view returns (uint);\r\n    function getPricePerFullShare() external view returns (uint);\r\n}\r\n\r\ncontract Wallet {\r\n    address admin;\r\n    IERC20 dai = IERC20(0x6B175474E89094C44Da98b954EedeAC495271d0F);\r\n    IYDAI yDai = IYDAI(0xC2cB1040220768554cf699b0d863A3cd4324ce32);\r\n\r\n\r\n    constructor() {\r\n        admin = msg.sender;\r\n    }\r\n\r\n\r\n    function save(uint amount) external {\r\n        dai.transferFrom(msg.sender, address(this), amount);\r\n        _save(amount);\r\n    }\r\n\r\n    function spend(uint amount, address recipient) external {\r\n        require(msg.sender == admin, 'only admin');\r\n        uint balanceShares = yDai.balanceOf(address(this));\r\n        yDai.withdraw(balanceShares);\r\n        dai.transfer(recipient, amount);\r\n        uint balanceDai = dai.balanceOf(address(this));\r\n        if(balanceDai > 0) {\r\n            _save(balanceDai);\r\n        }\r\n    }\r\n\r\n    function _save(uint amount) internal {\r\n        dai.approve(address(yDai), amount);\r\n        yDai.deposit(amount);\r\n    }\r\n\r\n    function balance() external view returns (uint) {\r\n        uint price = yDai.getPricePerFullShare();\r\n        uint balanceShares = yDai.balanceOf(address(this));\r\n        return balanceShares * price;\r\n    }\r\n\r\n}",
  "sourcePath": "C:/Users/footb/Desktop/Coding-Projects/EatTheBlocks/WalletYFI/contracts/Wallet.sol",
  "compiler": {
    "name": "solc",
    "version": "0.7.5+commit.eb77ed08.Emscripten.clang"
  },
  "schemaVersion": "3.3.2",
  "updatedAt": "2020-11-29T03:07:14.563Z",
  "devdoc": {
    "kind": "dev",
    "methods": {},
    "version": 1
  },
  "userdoc": {
    "kind": "user",
    "methods": {},
    "version": 1
  }
}